:100000000C945E060C9486060C9486060C94860668
:100010000C9486060C9486060C9486060C94860630
:100020000C9486060C9486060C949B0C0C940A0D7A
:100030000C9486060C9486060C9486060C94860610
:100040000C9486060C9486060C9486060C94860600
:100050000C9486060C9486060C9486060C943C0F31
:100060000C9486060C9486060C9486060C948606E0
:100070000C9486060C9486060C9486060C948606D0
:100080000C9486060C9486060C9486060C948606C0
:100090000C9486060C9486060C9486060C948606B0
:1000A0000C9486060C9486060C94860600000000CC
:1000B0000000000000000000000000000000000040
:1000C0000000000000000000000000000000000030
:1000D0000000000000000000000000000000000020
:1000E0000000000000000000000000000000000010
:1000F0000000000000000000000000000000000000
:1001000000000000000000000000000000000000EF
:1001100000000000000000000000000000000000DF
:1001200000000000000000000000050000000000CA
:1001300000000500000000000000000000000000BA
:10014000000004000002010300000B030000000097
:100150000000000001010300000208010109000A7B
:100160000101090A01030000020101010000000071
:10017000000000000000000000000000000000007F
:10018000000000000000000000000000000000006F
:10019000000000000000000000000000000000005F
:1001A000000000000000000000000000000000004F
:1001B00000000000000D0000000000000000000032
:1001C000000000000000000000000000000000002F
:1001D000000000000000000000000000000000001F
:1001E000000000000000000000000000000000000F
:1001F00000000000000000000000000000000000FF
:100200000000000000000000000D000F0E100000B4
:1002100000000000000000000000000000000000DE
:1002200000000000000000000000000000000000CE
:1002300000000000000000000000000000000000BE
:1002400000000000000000000000000000000000AE
:10025000000000000000000000000000000000009E
:10026000000000000D00000F0E0E0E100000000038
:100270000000000000000000000000050000000079
:10028000000000000000000000000000000000006E
:10029000000000000000000000000000000000005E
:1002A000000000000000000000000000000000004E
:1002B0000005000000000004000000000000000035
:1002C000000000000000000000000000000000002E
:1002D000000000000000000000000000000000001E
:1002E0000000000000000000050000000004000005
:1002F00000000004000000000000000000000000FA
:1003000000000000000000000000000000000000ED
:1003100001010101010101010101010101010101CD
:1003200001010101080101010108010101010108A8
:1003300001010101010300000000000000000000B5
:1003400000020101010101010101010100000000A1
:10035000000000000000000000000000000000009D
:10036000000000000000000000000000000000008D
:10037000000000000000000000000000000000007D
:10038000000000000000000000000000000000006D
:10039000000000000000000000000000000000005D
:1003A000000000000000000000000000000000004D
:1003B000000000000000000000000000000000003D
:1003C0000000000000000000000005000000000028
:1003D0000000050000000000000000000000000018
:1003E000000004000002010300000B0300000000F5
:1003F0000000000001010300000208010109000AD9
:100400000101090A010300000201010100000000CE
:1004100000000000000000000000000000000000DC
:1004200000000000000000000000000000000000CC
:1004300000000000000000000000000000000000BC
:1004400000000000000000000000000000000000AC
:1004500000000000000D000000000000000000008F
:10046000000000000000000000000000000000008C
:10047000000000000000000000000000000000007C
:10048000000000000000000000000000000000006C
:10049000000000000000000000000000000000005C
:1004A0000000000000000000000D000F0E10000012
:1004B000000000000000000000000000000000003C
:1004C000000000000000000000000000000000002C
:1004D000000000000000000000000000000000001C
:1004E000000000000000000000000000000000000C
:1004F00000000000000000000000000000000000FC
:10050000000000000D00000F0E0E0E100000000095
:1005100000000000000000000000000500000000D6
:1005200000000000000000000000000000000000CB
:1005300000000000000000000000000000000000BB
:1005400000000000000000000000000000000000AB
:100550000005000000000004000000000000000092
:10056000000000000000000000000000000000008B
:10057000000000000000000000000000000000007B
:100580000000000000000000050000000004000062
:100590000000000400000000000000000000000057
:1005A000000000000000000000000000000000004B
:1005B000010101010101010101010101010101012B
:1005C0000101010108010101010801010101010806
:1005D0000101010101030000000000000000000013
:1005E00000020101010101010101010100000000FF
:1005F000003E5B4F5B3E3E6B4F6B3E1C3E7C3E1CA9
:10060000183C7E3C181C577D571C1C5E7F5E1C00EE
:10061000183C1800FFE7C3E7FF0018241800FFE7A5
:10062000DBE7FF30483A060E2629792926407F0568
:100630000507407F05253F5A3CE73C5A7F3E1C1C7E
:1006400008081C1C3E7F14227F22145F5F005F5F3E
:1006500006097F017F006689956A6060606060942A
:10066000A2FFA29408047E040810207E201008082F
:100670002A1C08081C2A08081E101010100C1E0C3A
:100680001E0C30383E3830060E3E0E0600000000CC
:100690000000005F00000007000700147F147F14B3
:1006A000242A7F2A122313086462364956205000F8
:1006B00008070300001C2241000041221C002A1CE4
:1006C0007F1C2A08083E08080080703000080808CF
:1006D0000808000060600020100804023E514945EF
:1006E0003E00427F400072494949462141494D330D
:1006F0001814127F1027454545393C4A4949314174
:10070000211109073649494936464949291E000041
:100710001400000040340000000814224114141496
:100720001414004122140802015909063E415D5982
:100730004E7C1211127C7F494949363E414141228B
:100740007F4141413E7F494949417F090909013EB5
:10075000414151737F0808087F00417F41002040DC
:10076000413F017F081422417F404040407F021CEE
:10077000027F7F0408107F3E4141413E7F09090905
:10078000063E4151215E7F091929462649494932D1
:1007900003017F01033F4040403F1F2040201F3F97
:1007A0004038403F6314081463030478040361591C
:1007B000494D43007F41414102040810200041415E
:1007C000417F04020102044040404040000307080A
:1007D0000020545478407F28444438384444442806
:1007E000384444287F385454541800087E090218AD
:1007F000A4A49C787F0804047800447D4000204035
:10080000403D007F1028440000417F40007C047878
:1008100004787C080404783844444438FC182424C0
:100820001818242418FC7C08040408485454542440
:1008300004043F44243C4040207C1C2040201C3CBD
:100840004030403C44281028444C9090907C4464B4
:10085000544C440008364100000077000000413647
:10086000080002010204023C2623263C1EA1A161CD
:10087000123A4040207A38545455592155557941FF
:100880002154547841215554784020545579400CD6
:100890001E527212395555555939545454593955B7
:1008A0005454580000457C410002457D42000145FA
:1008B0007C40F0292429F0F0282528F07C54554567
:1008C000002054547C547C0A097F493249494932FA
:1008D0003248484832324A4848303A4141217A3A0F
:1008E00042402078009DA0A07D39444444393D40D9
:1008F00040403D3C24FF2424487E4943662B2FFC86
:100900002F2BFF0929F620C0887E09032054547933
:10091000410000447D413048484A32384040227A04
:10092000007A0A0A727D0D19317D2629292F282681
:100930002929292630484D40203808080808080889
:100940000808382F10C8ACBA2F102834FA00007BE2
:10095000000008142A142222142A140895002200E8
:1009600095AA005500AAAA55AA55AA000000FF00A2
:10097000101010FF00141414FF001010FF00FF10DF
:1009800010F010F0141414FC001414F700FF000011
:10099000FF00FF1414F404FC141417101F10101F90
:1009A000101F1414141F00101010F0000000001F7E
:1009B000101010101F10101010F010000000FF1089
:1009C0001010101010101010FF10000000FF140085
:1009D00000FF00FF00001F10170000FC04F41414B7
:1009E0001710171414F404F40000FF00F714141483
:1009F00014141414F700F7141414171410101F1003
:100A00001F141414F4141010F010F000001F101F25
:100A10000000001F14000000FC140000F010F01093
:100A200010FF10FF141414FF141010101F0000000A
:100A300000F010FFFFFFFFFFF0F0F0F0F0FFFFFF0E
:100A40000000000000FFFF0F0F0F0F0F3844443865
:100A5000447C2A2A3E147E02020606027E027E02A0
:100A600063554941633844443C04407E201E2006BF
:100A7000027E020299A5E7A5991C2A492A1C4C72FC
:100A800001724C304A4D4D303048784830BC625A83
:100A9000463D3E494949007E0101017E2A2A2A2A13
:100AA0002A44445F444440514A444040444A5140EF
:100AB0000000FF0103E080FF000008086B6B0836B0
:100AC00012362436060F090F060000181800000021
:100AD0001010003040FF0101001F01011E00191D10
:100AE0001712003C3C3C3C0000000000F0F89C8EDB
:100AF0008783878E9CF8F00000FEFF030303030347
:100B0000070EFCF80000FEFF0303030303070EFCBF
:100B1000F80000FFFF00000000000000FFFF0000E1
:100B2000FEFF8383838383C7EE7C380000F8FC0ECE
:100B300007030303070EFCF800003F7FE0C080803E
:100B4000C0E07F3FFFFF01010101010101FFFF0044
:100B500000FFFF0C0C0C0C1C3E77E3C100007FFF74
:100B6000C0C0C0C0C0E0703F1F00001F3F70E0C0A9
:100B7000C0C0E0703F1F00007FFFC1C1C1C1C1E321
:100B8000773E1C00001F3F70E0C0C0C0E0703F1FF8
:100B9000000000000001FFFF01000000D5F08D14EF
:100BA000A1C881CFD9F1AF200008080000000000E3
:100BB0000000000101010101010101FF010101012A
:100BC00001010101010101010101FFFF000000001D
:100BD0000000FFFF010101010101FFFF0000000013
:100BE00000000000000000000000FF010000000005
:100BF00000000101000000000000000000000000F3
:100C0000000001FF000000000000010100000000E2
:100C10000000FFFF818181818181FF81818181814C
:100C2000818181FF81818181818181818181818136
:100C30008181FF08087EC381898189C37E7EC38943
:100C4000818981C37E7EC381818181C37E080B003F
:100C50000202020000090400000102020000052453
:100C600000100105240101010424020605240600E8
:100C7000010705810310004009040100020A000079
:100C8000000705020240000007058302400000043F
:100C900003090412010002EF0201404123368000E3
:100CA000010102030141726475696E6F204C4C436F
:100CB0000041726475626F790000B90F11241FBE84
:100CC000CFEFDAE0DEBFCDBF11E0A0E0B1E0EAEFA8
:100CD000FEE202C005900D92A035B107D9F725E0DC
:100CE000A0E5B1E001C01D92A53FB207E1F716E013
:100CF000CEE5D6E004C02197FE010E947517CD35E0
:100D0000D107C9F70E94D70F0C947B170C940000F1
:100D1000E0EAF1E0A0E0B8E000800EBC8111012C17
:100D20001197A0FDFDCF0192B9F70DB40895FC0114
:100D300080919F01882311F13FB7F89482E080935E
:100D4000E9002091F200822F90E01816190614F4A1
:100D500081E090E0882339F0289844E640939E0192
:100D60004091F1004083222339F02091F2002111BB
:100D700003C02BE62093E8003FBF08958FEF9FEF5D
:100D800008952FB7F89483E08093E9009091E800EC
:100D9000892F807295FF04C09091F20080E4891B36
:100DA0002FBF08958091960181110DC082E080933C
:100DB000920184E080939301109295011092940126
:100DC00081E08093960182E991E00895CF93DF93CB
:100DD0001F92CDB7DEB76983DC01ED91FC910280F3
:100DE000F381E02D41E050E0BE016F5F7F4F099538
:100DF0000F90DF91CF91089583E08093E900809177
:100E0000F200882319F08AE38093E80008950E9495
:100E1000C10690E00895CF93DF931F92CDB7DEB760
:100E2000FC018485958597FD08C02FEF3FEF35873E
:100E300024870F90DF91CF910895CE0101960E94F3
:100E40009706019719F4898190E0F3CF8FEF9FEF18
:100E5000F0CF0F931F93CF93DF931F92CDB7DEB7E1
:100E60008C01FC018485958597FF0BC0CE0101960E
:100E70000E949706019771F4898190E0F8019587A7
:100E80008487F801848595850F90DF91CF911F911C
:100E90000F9108958FEF9FEFF1CFFC018485958529
:100EA00097FD0BC09FB7F89482E08093E900809192
:100EB000F2009FBF90E0019608959FB7F89482E0FA
:100EC0008093E9008091F2009FBF90E008954091E7
:100ED0008C0150918D0120918A0130918B01421734
:100EE0005307B4F49091E8009570E1F39091E80015
:100EF00092FD19C08093F10080918C0190918D0139
:100F000001968F739927892B19F48EEF8093E8004F
:100F100080918C0190918D01019690938D01809329
:100F20008C0181E0089580E00895DF92EF92FF92B6
:100F30000F931F93CF93DF93D82E8A01EB017B0190
:100F4000E40EF51ECE15DF0559F0D7FE12C0FE01E6
:100F500084910E94670721968111F4CF0FEF1FEF54
:100F6000C801DF91CF911F910F91FF90EF90DF901B
:100F700008958881EECF0F931F93CF93DF931F9235
:100F8000CDB7DEB782E0898342E450E06DE47CE0D7
:100F900080E80E9495070E94D206DC0112960D910E
:100FA0001C910115110589F0D801ED91FC91028089
:100FB000F381E02DBE016F5F7F4FC801099597FD5A
:100FC00004C0F80100851185ECCF89810F90DF9175
:100FD000CF911F910F910895615030F02091F10051
:100FE000FC0120830196F8CF289884E680939E0127
:100FF0000895FC010E949008319728F068517C4FB9
:101000008F4F9F4FF9CFAB01FC010E9490086417EE
:1010100075078E079F07C8F308958F929F92AF922E
:10102000BF92CF92DF92EF92FF920F931F93CF93D5
:10103000DF936C017B018A0180910B01882309F405
:101040005AC080919F01882309F455C08091910175
:1010500080FF05C08091E00082608093E000E8019D
:10106000B12C8AEFA82E93E0892E2AE3922E2097A6
:1010700011F4BB20C9F10E94C106811108C0AA94D5
:10108000AA20C9F181E090E00E94F907F0CF8C1707
:101090001D0611F00CF08C2F9FB7F8948092E90098
:1010A0002091E80025FD02C09FBFE1CF282F30E04E
:1010B000C21BD30BF701815020F041914093F10006
:1010C000FACFE20EF31EBB2021F09092E800B12C83
:1010D000EBCF8091E80085FDE7CF9092E800BB243C
:1010E000B394209709F3F3CF5D9884E68093900141
:1010F000101611063CF081E090E0F60193838283A4
:1011000010E000E0C801DF91CF911F910F91FF9097
:10111000EF90DF90CF90BF90AF909F908F90089509
:10112000A6E8B1E02FB7F8947D918D919C9166B5BA
:101130002FBFA89B05C06F3F18F47F5F8F4F9F4F55
:1011400022E0660F771F881F991F2A95D1F708950F
:10115000AF92BF92CF92DF92EF92FF920F931F93C5
:10116000CF93DF936C017B018B01040F151FEB0103
:101170005E01AE18BF08C017D10759F06991D601BA
:10118000ED91FC910190F081E02DC6010995892B2C
:1011900079F7C501DF91CF911F910F91FF90EF90EB
:1011A000DF90CF90BF90AF9008954F925F926F9273
:1011B0007F928F929F92AF92BF92CF92DF92EF92E7
:1011C000FF920F931F93CF93DF934C015901FC2D96
:1011D000C02FD0E0CE01880D991D181619060CF00D
:1011E0006CC020E8821691040CF067C09B012E0DA4
:1011F000311D121613060CF060C0603471050CF03E
:101200005CC04115510509F458C0E62FE770FE2E69
:10121000DB0177FD179633E0B595A7953A95E1F791
:101220003A2F77FF04C0FF2011F03FEF3A0F6627F7
:1012300077276819790997FC02C070E060E0803870
:1012400091050CF44BC090E89819961BA32F032E20
:10125000000CBB0B1A2F10953F3F0CF010E021E063
:101260008E2D877009F420E0E694E694E694E20E71
:10127000AE0DB11D19971CF028E0E22EE31AE11A19
:10128000310F20E83203D0011124A80DB91DA60F9B
:10129000B71F019F600D711D1124460F571F0F2DA1
:1012A0000F2C000C110BF33009F41CC1C8F4F13001
:1012B00009F4D0C0F23009F47CC0DF91CF911F91C6
:1012C0000F91FF90EF90DF90CF90BF90AF909F90E5
:1012D0008F907F906F905F904F900895902FB5CF33
:1012E000FA3FB1F1232F2E0DFB3F39F7321729F3C7
:1012F000BD0160567E4FD12CC12CC91608F0A4C088
:10130000FA01EC0DFD1DE491F0E04F01002E02C04A
:10131000880C991C0A94E2F737FD06C0FB01808116
:10132000E82CE0948E218083FF2061F0373054F464
:101330005B01F0E8AF0EB11CE92CE094F50180816F
:101340008E218083FFEFCF1ADF0A6F5F7F4FD5CFEB
:10135000232F2E0D321709F4B0CFBD0160567E4FFA
:10136000D12CC12CC91608F069C0FA01EC0DFD1D85
:10137000E491F0E04F01002E02C0880C991C0A9401
:10138000E2F737FD04C0FB01808188298083FF20BC
:1013900051F0373044F45B01F0E8AF0EB11CF501B9
:1013A000808189298083FFEFCF1ADF0A6F5F7F4F2B
:1013B000D9CF6FEF70E00F2C02C0660F771F0A9431
:1013C000E2F760957095772E232F2E0D321709F4D2
:1013D00074CFFD01E056FE4F6F01B12CA12CA91670
:1013E00038F5FA01EA0DFB1DE491F0E02F01002E23
:1013F00002C0440C551C0A94E2F737FD05C0F60103
:101400008081862384298083FF2059F037304CF473
:101410004601F0E88F0E911CF40180818721852917
:101420008083FFEFAF1ABF0A8FEFC81AD80AD7CF51
:101430003F5F4C0F5D1FA058BF4FC8CF3F5F4C0FA1
:101440005D1FA058BF4F86CF3F5F4C0F5D1FA05858
:10145000BF4F4CCF6A0D7B1D232F2E0D321709F481
:101460002CCFFD01E056FE4F6F01B12CA12CA91627
:1014700088F5FB01EA0DFB1D8490912C002E02C023
:10148000880C991C0A94E2F780949094FA01EA0D72
:10149000FB1D6490712C002E02C0660C771C0A9410
:1014A000E2F737FD05C0F601808188218629808317
:1014B000FF2049F037303CF4F601E058FF4F8081BF
:1014C000892187298083FFEFAF1ABF0A8FEFC81ADF
:1014D000D80ACDCF3F5F4C0F5D1F6C0F7D1FA0580A
:1014E000BF4FBCCFC92ED12CFA01E60FF71FA05673
:1014F000BE4F00E810E00C191D09CC19DD09BE0132
:10150000660F771F41E050E06A010F2C01C0CC0C40
:101510000A94EAF7592F2E2D792ECF93DF93ED0100
:10152000EF96EF9622968590A590FF2059F08C9C1F
:101530004001AC9C500137302CF4E880B094EB2093
:10154000E928E99233233AF0EC90A094EA20E828C5
:10155000ED920C94AC0A11965A9529F72A9551F000
:10156000572D33951124E60FF11DA00FB11DC00FAB
:10157000D11DD9CFDF91CF9111249FCE90E00C9453
:10158000F9078FB18095807F669B88601C9B846083
:1015900008956F927F928F929F92AF92BF92CF9257
:1015A000DF92EF92FF920F931F93CF93DF9300D0C0
:1015B0001F92CDB7DEB76D3089F0A0905801B09082
:1015C00059016A30F9F410925B0110925A019501A9
:1015D000285F3F4F309359012093580181E090E0FC
:1015E0000F900F900F90DF91CF911F910F91FF906F
:1015F000EF90DF90CF90BF90AF909F908F907F90B3
:101600006F90089500915A0110915B0135E0639F3E
:10161000F0011124E451FA4FA801712C80E1682EE9
:1016200098E0D92EDA0C75E060E0771621F0CF0152
:1016300001966491FC01C50140385105D0F4803415
:101640009105B8F4A62FA170CA2E9C0171E021FD6E
:1016500074E020FD770F22FD7295287F629ED001F5
:101660001124A40FA056BE4F0C90072AC0FE0726D7
:101670000C9266950196D812DFCF73944F5F5F4F3F
:1016800086E07812D0CF0A5F1F4F10935B01009362
:101690005A01A4CFCF93C82F0E94C10A982F9C2330
:1016A00081E09C1380E0CF91089580E00C9488063F
:1016B000DC0177FD1FC057FD1DC012962C911297BB
:1016C00030E062177307B4F413968C911397841764
:1016D000150681F07CF0429FF001439FF00D529F70
:1016E000F00D11246E0F7F1FED91FC91E60FF71F97
:1016F0008491089580E00895089590E080E0089531
:10170000FC0101900020E9F73197AF01481B590B0C
:10171000BC0181EF95E00C94A8088F929F92AF9244
:10172000BF920F931F93CF93DF93CDB7DEB7A197EF
:101730000FB6F894DEBF0FBECDBF19A2423008F439
:101740004AE08E010F5D1F4F842E912CB12CA12CED
:10175000A50194010E946E15E62FB901CA01EA3075
:10176000F4F4E05DD801EE938D01232B242B252B7F
:1017700079F790E080E0109719F0CD010E94800B7E
:10178000A1960FB6F894DEBF0FBECDBFDF91CF910B
:101790001F910F91BF90AF909F908F900895E95C3B
:1017A000E1CF4F925F926F927F928F929F92AF9212
:1017B000BF92CF92DF92EF92FF926B017C01AC015E
:1017C0009B010E945C178823C1F081E491E00E9494
:1017D000800B7C018DE491E00E94800B8E0D9F1D9B
:1017E000FF90EF90DF90CF90BF90AF909F908F9041
:1017F0007F906F905F904F90089546015701E89455
:10180000B7F82FEF3FEF4FE75FE7C501B4010E9444
:101810005C1781110DC02FEF3FEF4FE75FE7C50168
:10182000B4010E94FD1518161CF485E491E0CFCF99
:101830002FEF3FEF4FE75FE4C701B6010E94EA16C2
:1018400018161CF489E491E0C2CF2FEF3FEF4FE769
:101850005FECC701B6010E94FD1587FDF3CF20E0C4
:1018600030E0A901C701B6010E94FD15B12CA12CE1
:1018700087FF0AC06DE281EF95E00E94C90A5C0112
:10188000F7FAF094F7F8F0942AE037ED43EA5BE3D7
:10189000C701B6010E9491152B013C010E94091657
:1018A0006B017C010E9438169B01AC01C301B2019F
:1018B0000E9490152B013C014AE0C701B6010E942D
:1018C0008D0B7C01EA0CFB1C6EE281EF95E00E941F
:1018D000C90AE80EF91E20E030E040E251E4C301FD
:1018E000B2010E94EF162B013C010E9409164B0128
:1018F000B12CA12C4AE0C501B4010E948D0BE80E69
:10190000F91EC501B4010E9438169B01AC01C30148
:10191000B2010E94901520E030E040E251E40E94C4
:10192000EF160E94091690E080E04AE00E948D0BBD
:10193000E80EF91E4FCF1F920F920FB60F9211248F
:101940008F939F938091E1009091E100937F90931A
:10195000E10083FF0FC01092E90091E09093EB004B
:101960001092EC0092E39093ED0010929F0198E0AA
:101970009093F00082FF22C093E09093E900909151
:10198000F200992319F09AE39093E8009091900166
:10199000992341F090919001915090939001911171
:1019A00001C05D9A90919E01992341F090919E0112
:1019B000915090939E01911101C0289A84FF18C004
:1019C0008091E2008E7E81608093E2008091E10050
:1019D0008F7E8093E100809191018E7E8061809363
:1019E00091019F918F910F900FBE0F901F901895AE
:1019F00080FFF7CF8091E2008E7E80618093E200CD
:101A00008091E1008E7E8093E100809191018E7E35
:101A10008160E5CF1F920F920FB60F921124CF92E3
:101A2000DF92EF92FF920F931F932F933F934F9369
:101A30005F936F937F938F939F93AF93BF93EF9336
:101A4000FF93CF93DF93CDB7DEB76C97DEBFCDBFEB
:101A50001092E9008091E80083FF25C068E0CE0184
:101A600045960E94EC0782EF8093E8008D8987FFFE
:101A700039C09091E80090FFFCCF982F907609F044
:101A800034C19E894F89588D2F89F88C911131C0AE
:101A9000803861F580918F018093F1001092F10000
:101AA0008EEF8093E8006C960FB6F894DEBF0FBE01
:101AB000CDBFDF91CF91FF91EF91BF91AF919F91FA
:101AC0008F917F916F915F914F913F912F911F91D6
:101AD0000F91FF90EF90DF90CF900F900FBE0F907F
:101AE0001F9018959EEF9093E800C7CF1092F100D9
:101AF000D5CF913059F48111D3CF4130510581F6C2
:101B000080918F018D7F80938F01CACF933049F4EC
:101B10008111C6CF4130510519F680918F01826045
:101B2000F2CF953041F48091E80080FFFCCF20682F
:101B30002093E300B5CF963009F0A9C00B8D1C8D22
:101B400022E01092E90010928D0110928C01F212A5
:101B50002EC010928B0110928A010E94BB071F8237
:101B600099E09983FA8291E09E8390EA98879AEFB0
:101B7000998720918C0130918D01275F3F4F3C83E5
:101B80002B838D831092E90010928D0110928C01AD
:101B900010938B0100938A0149E050E0BE016F5F12
:101BA0007F4F80E00E9495070E94BB0779CF10937A
:101BB0008B0100938A010E94D206DC0112960D91DE
:101BC0001C910115110509F451C1D801ED91FC9149
:101BD0000480F581E02DBE016B5E7F4FC801099541
:101BE000009709F03EC1F80100851185EACFF3E0C6
:101BF000FF120EC08F89882309F440C0823061F43F
:101C000040E867E081EB9CE00E94860F811148CF9D
:101C100081E28093EB0047CF813029F440E86BE00C
:101C200085EA9CE0F1CF833099F70E94D206DC016F
:101C30001296ED90FC908E010F5F1F4F6801E1142A
:101C4000F10479F0D701ED91FC910680F781E02D48
:101C5000B801C7010995080F111DF701E084F1844F
:101C6000EECFD8011C92F60101900020E9F73197E0
:101C7000BF016C197D0940E0C601C6CF6FE87CE06A
:101C8000FB01449150E080E80E94950709CF97300E
:101C900009F4BECF983021F481E08093F10000CFA9
:101CA000993009F0FDCE837009F0B2CFEDE1F1E09B
:101CB00081E031E096E32191222371F08093E900E5
:101CC0003093EB00DF0111972C912093EC0090935F
:101CD000ED008F5F873079F78EE78093EA001092EE
:101CE000EA008F8980939F01DBCE8B8D9C8D1092B3
:101CF000E90010928D0110928C0190938B018093DA
:101D00008A01898D811192C08E899D89913A49F409
:101D1000813209F07DCF47E050E064E071E080E07F
:101D2000B3CF913209F074CF833269F48F89988DE3
:101D3000B0E0A0E08093000190930101A093020124
:101D4000B0930301ADCE803269F48091E80082FF48
:101D5000FCCF67E084E091E00E94EC078BEF80937A
:101D6000E8009ECE823209F09BCE8F8980930B01D2
:101D7000EEEFFFE7859194918B3F9C4D51F1E0E0B0
:101D8000F8E08091040190910501A0910601B091C5
:101D90000701803B9440A105B105F1F480910B014E
:101DA00080FD1AC0EE3F8AE0F80789F587E797E7DC
:101DB000918380838091600080938E0188E19BE015
:101DC0000FB6F894A895809360000FBE90936000C2
:101DD00067CEEEEFFAE0D5CF8081918187379747C4
:101DE00009F05ECEA89580916000886180936000C4
:101DF00080918E0180936000EE3F2AE0F20789F027
:101E00008091FE0A9091FF0A9183808349CE808160
:101E100091818737980751F29093FF0A8093FE0AC9
:101E2000C5CF1092FF0A1092FE0A3ACE0E94D20647
:101E3000DC0112960D911C910115110509F4E8CEF3
:101E4000D801ED91FC910190F081E02DBE016B5E17
:101E50007F4FC8010995811123CEF80100851185B6
:101E6000EBCF181619060CF41BCED2CEF1E0FF1200
:101E7000BECE63E97CE004CF0F920FB68F939F93A1
:101E8000EF93FF93809181018D5F8D3708F08D571F
:101E900080938101E2E8F1E080818E4F808391811F
:101EA0009F4F918382818F4F828383818F4F838362
:101EB000E6E8F1E080818F5F808381818F4F8183AD
:101EC00082818F4F828383818F4F83838FB18F6015
:101ED00066991C9B88278F3681F480918001981B1E
:101EE000963068F0E0E0F8E087E78083818388E15E
:101EF00080936000F0936000FFCF90938001FF918A
:101F0000EF919F918F910FBE0F901895EF92FF92D6
:101F10000F931F93CF93DF93F82E192FE62E042FE4
:101F200081E0860F880F0E94670783E00E946707A1
:101F3000CF2DD12FEC0EFD2EF11CCE15DF05B9F003
:101F400007FF13C0FE0184910E946707182F80E0ED
:101F50000E946707812321968111EFCFDF91CF91F6
:101F60001F910F91FF90EF9008958881EDCF81E050
:101F7000F5CFE0EAF5E01382128288EE93E0A0E06C
:101F8000B0E084839583A683B78387E291E0918351
:101F900080838FEF9FEF95878487E0EFF5E01082D5
:101FA0001482138289E391E0928381830895CDB7EF
:101FB000DEB72697DEBFCDBF789483E084BD83E093
:101FC00085BD81E080936E00E1E8F0E083E08083EE
:101FD000E0E881E08083E1E983E08083E0E981E07B
:101FE0008083E1EC87E08083E3EC81E08083E0ECB8
:101FF00082E08083E2EC81E08083EAE787E080830F
:102000008068808310929F0110928F01109291013D
:102010008091D70081608093D70080EA8093D800B8
:1020200089B5806189BD89B5826089BD09B400FE2A
:10203000FDCF81E090E00E94F9078091D8008F7C6D
:1020400080618093D8008091E000807F8093E000E1
:102050008091E1008E7E8093E1008DE08093E2002C
:10206000559A209A81EC80937C0081EF85B987EEA8
:1020700084B982E38BB982EF8AB9769A6E9880EF41
:1020800081BB10BA80E58CBD81E08DBD85E00E94EA
:10209000BE0A5F9A85E00E94BE0A5C98ECE9FBE00C
:1020A00085918EBD00000DB407FEFDCFE93AC1F762
:1020B0005C9A81E88093640081E0809365000E94CF
:1020C000550B80E80E944A0B8823A9F05C9885EAAA
:1020D0008EBD00000DB407FEFDCF5C9A2E982F98A0
:1020E0002D988091640080628093640081E083BFBA
:1020F000889513BEFCCF84E00E944A0B8823B9F177
:102100002D9884E80E944A0B8823A1F02D9A88EC30
:102110000E94BE0A2F986FEF82E090E00E945C154B
:1021200084EF91E00E94F9072F9A84E80E944A0BFD
:102130008111FBCF84E10E944A0B8823A1F02D9AE4
:1021400088EC0E94BE0A2E9860E082E090E00E9437
:102150005C1584EF91E00E94F9072E9A84E10E94B9
:102160004A0B8111FBCF88EC0E94BE0AC4CF2D9A86
:1021700082E090E00E945415882389F13E9A3F9AAC
:1021800081E090E00E945415182F147081FF0DC05B
:1021900011112E98F1EF8F2E99249A9480E40E94C9
:1021A0004A0B8823F9F02E9A2F9A82E30E94BE0AE6
:1021B0000E94C10A8111F9CF6AEA262E6BE0362E01
:1021C00000917E010983002309F4AFC010927E01C3
:1021D00080E090E0892BA1F30E940000F1CF3E98AF
:1021E0003F98CECF112331F004E08016910411F412
:1021F0002E9A2F9881E00E948806282D2770A22E03
:10220000A40173E0559547957A95E1F79A013695C3
:10221000322F22273795279520563E4F70E060E0F9
:102220004E3F8FEF580761F190E080E0DB01A45151
:10223000B54F7901E0E8EE0EF11CFD01E80FF91F42
:10224000E491F0E03F010A2C02C0660C771C0A946E
:10225000E2F74F3F540739F06901C80ED91EF60165
:10226000B488B628B48AAA2039F06701C80ED91EEE
:10227000F60104890729048B019688359105E9F652
:102280004F5F5F4F20583F4F685A7F4F603B71054B
:1022900039F60E94550B8FE00E94BE0AFFEF8F1A9D
:1022A0009F0A09E18016910409F078CF112311F0FB
:1022B0002F9A2D9880E991E00E94F9072D9A81E0EC
:1022C00090E00E94541580FF70CF8AE090E00E9459
:1022D00054159FEF980F9E3F08F067CF22E330E040
:1022E00030935B0120935A0128E330E03093590189
:1022F000209358012BE030E03A832983682F81EF47
:1023000095E00E94C90A89819A810E945415A98189
:10231000BA811196BA83A983519781F70E94550B10
:1023200088EE93E00E94F90740CF8091820190915E
:102330007F01282F291B203140F42F3009F448CF8A
:1023400081E083BF889513BE43CF31E030937E0197
:1023500080937F01ECE7F1E0808191810196808399
:1023600091831091790110937A010E94C10A282F5C
:1023700080937901E0EAF1E0998191119FEF8FEF6D
:1023800091939193919391938150D0F71092590129
:102390001092580110925B0110925A0180917B01BA
:1023A000882329F0813059F00E94550B11CF13FD7D
:1023B000FBCF23FFF9CFA1E0A0937B01F5CFB09134
:1023C000F00504E0B09FF0011124E45FFE4FFA83B2
:1023D000E98310E0A981BA8113968C91181708F04F
:1023E0007CC0A12EB12CB50153E0660F771F5A9522
:1023F000E1F7072E000C880B990B0E943A162091EA
:1024000060013091610140916201509163010E942D
:1024100090150E9402164B01685F7F4F6934710569
:1024200008F059C0D12CE981FA818281D81608F0D0
:1024300052C0ED2CF12CB70143E0660F771F4A958F
:10244000E1F7072E000C880B990B0E943A16209199
:102450005C0130915D0140915E0150915F010E94ED
:1024600090150E9402162B01CB0108968938910520
:1024700080F5A501B70189819A810E94580BE9EA8C
:10248000FBE00491F101E4904BEA5BE08823C9F0A2
:1024900021E030E09E2D977011F430E020E09E2D79
:1024A000969596959695290F311D029FB001039F31
:1024B000700D1124869FA001879F500D1124455552
:1024C000544F3AEFC32E30E020E0B401C2010E9425
:1024D000D508D394A8CF1F5F7DCF80E40E944A0B1C
:1024E0008823C1F028EB3EE145E05EE36091710195
:1024F0007091720180917301909174010E94911505
:1025000060937101709372018093730190937401D1
:102510001092660180E20E944A0B8823C9F028EBE2
:102520003EE145E05EE3609171017091720180913E
:102530007301909174010E949015609371017093E2
:102540007201809373019093740181E0809366011E
:1025500088E00E944A0B882381F0809168018823DB
:1025600061F089E29CE5AFE8BFEB80937501909341
:102570007601A0937701B093780160916901709121
:102580006A0180916B0190916C010E94D10B609166
:102590006D0170916E0180916F01909170010E94A8
:1025A000D10B0091F005F4E00F9F800111240C5E27
:1025B0001E4F2FE832EC45EF5CE36091750170919E
:1025C000760180917701909178010E9491154B01DD
:1025D0005C018092750190927601A0927701B09291
:1025E000780121E73DE34AE65FE360917101709174
:1025F000720180917301909174010E94EF166093B3
:102600007101709372018093730190937401209112
:10261000690130916A0140916B0150916C010E94F7
:1026200091156B017C0120916D0130916E014091FB
:102630006F0150917001C501B4010E9491154B01C9
:102640005C0120E030E040E850E4C701B6010E94A0
:10265000911520E030E040E05EE30E94EF160E941A
:1026600002162B0120E030E040E850E4C501B4013F
:102670000E94911520E030E040E05EE30E94EF16FA
:102680000E94021669837A838B839C8320E030E06A
:1026900040E051E4C701B6010E9491150E94021664
:1026A0007E836D8377FF04C0DB011796BE83AD8305
:1026B000ED81FE8123E0F595E7952A95E1F7FE830C
:1026C000ED8349815A81BF01C8010E94580B8823BC
:1026D000C9F06D817E816150710993E0660F771FAB
:1026E0009A95E1F7072E000C880B990B0E943A1679
:1026F0006B017C01109271011092720110927301B2
:1027000010927401C701B6010E9402167E836D8388
:1027100077FF04C0DB011796BE83AD83ED81FE8198
:1027200083E0F595E7958A95E1F7FE83ED8349818E
:102730005A81BF01C8010E94580B8823C9F06D81DE
:102740007E816F5F7F4FB3E0660F771FBA95E1F729
:10275000072E000C880B990B0E943A166B017C0126
:102760001092710110927201109273011092740113
:1027700020E030E040E051E4C501B4010E94911531
:102780000E9402167A83698377FF04C0DB011796E3
:10279000BA83A983E981FA81A3E0F595E795AA9523
:1027A000E1F7FA83E983AF01B201C8010E94580B37
:1027B000882309F447C169817A8161507109E3E096
:1027C000660F771FEA95E1F7072E000C880B990B2F
:1027D0000E943A164B015C0110927501109276012D
:1027E000109277011092780181E08093680120E0D7
:1027F00030E040E85FE3C501B4010E9490150E94FB
:1028000002167A83698377FF04C0DB011796BA83C7
:10281000A983E981FA8153E0F595E7955A95E1F7A7
:10282000FA83E983AF01B201C8010E94580B8823E3
:10283000E9F069817A816F5F7F4F43E0660F771F10
:102840004A95E1F7072E000C880B990B0E943A1667
:102850004B015C0180E090E0A0E8BEEB8093750145
:1028600090937601A0937701B093780120E030E057
:10287000A901C701B6010E94EA1618161CF0C12C66
:10288000D12C7601C0926901D0926A01E0926B016D
:10289000F0926C0180926D0190926E01A0926F0196
:1028A000B092700140905C0150905D0160905E01BB
:1028B00070905F0120E030E0A901C301B2010E94E5
:1028C000FD1518161CF081E080936401E091F0057D
:1028D00094E0E99FF0011124EC5EFE4FA28108E034
:1028E000A09FF0011124FA83E983BF0160587109A8
:1028F000072E000C880B990B0E943A169B01AC0125
:10290000C301B2010E94EA1687FD03C081E08093F3
:10291000650180916401882359F020E030E040E6B1
:1029200052E4C701B6010E94EA1687FF10926401C3
:1029300080916501882389F069817A8168537109E2
:10294000072E000C880B990B0E943A16A7019601DE
:102950000E94EA1687FF109265018091640181113F
:1029600014C080916501811110C020E030E040E882
:1029700052E4C701B6010E94901560935C01709308
:102980005D0180935E0190935F0120E030E0A9013A
:10299000C501B4010E94FD1587FF62C080926001ED
:1029A00090926101A0926201B09263012091600156
:1029B000309161014091620150916301C501B40100
:1029C0000E9490150E9402164B0120915C013091EB
:1029D0005D0140915E0150915F01C701B6010E9407
:1029E00090150E940216CB01E3E3FCE024E33CE0F7
:1029F0004091670141113DC00491F901E49020919B
:102A0000660145E35CE02223A9F041E050E02E2D71
:102A1000277011F450E040E06E2D6695669566953E
:102A2000640F752F711D069FA001079F500D112483
:102A30004B5C534F22E0C22E30E020E0B4010E94F4
:102A4000D508B2CC80917C0190917D016FE070E05F
:102A50000E946117892B09F0CACE10926801C7CE77
:102A60001092600110926101109262011092630154
:102A70009DCF109267010491F901E4902E2D2770EB
:102A800041E050E011F450E040E06E2D669566950F
:102A90006695640F752F711D069FA001079F500D4D
:102AA0001124440F551FC4CFF999FECF92BD81BDAB
:102AB000F89A992780B50895262FF999FECF92BDEF
:102AC00081BDF89A019700B4021639F01FBA20BDF3
:102AD0000FB6F894FA9AF99A0FBE0895A1E21A2E49
:102AE000AA1BBB1BFD010DC0AA1FBB1FEE1FFF1FB2
:102AF000A217B307E407F50720F0A21BB30BE40B02
:102B0000F50B661F771F881F991F1A9469F7609548
:102B10007095809590959B01AC01BD01CF01089502
:102B20005058BB27AA270E94A8150C94B0160E94E3
:102B3000A21638F00E94A91620F039F49F3F19F42C
:102B400026F40C949F160EF4E095E7FB0C9499166E
:102B5000E92F0E94C11658F3BA176207730784075A
:102B6000950720F079F4A6F50C94E3160EF4E095A1
:102B70000B2EBA2FA02D0B01B90190010C01CA0137
:102B8000A0011124FF27591B99F0593F50F4503EE2
:102B900068F11A16F040A22F232F342F4427585FD4
:102BA000F3CF469537952795A795F0405395C9F7EC
:102BB0007EF41F16BA0B620B730B840BBAF09150A4
:102BC000A1F0FF0FBB1F661F771F881FC2F70EC043
:102BD000BA0F621F731F841F48F487957795679516
:102BE000B795F7959E3F08F0B0CF9395880F08F002
:102BF0009927EE0F9795879508950E94751608F40A
:102C000081E008950E9409166894B1110C94E416AD
:102C100008950E94C91688F09F5798F0B92F9927F8
:102C2000B751B0F0E1F0660F771F881F991F1AF0B7
:102C3000BA95C9F714C0B13091F00E94E316B1E023
:102C400008950C94E316672F782F8827B85F39F022
:102C5000B93FCCF3869577956795B395D9F73EF450
:102C600090958095709561957F4F8F4F9F4F0895F8
:102C7000E89409C097FB3EF4909580957095619516
:102C80007F4F8F4F9F4F9923A9F0F92F96E9BB27CC
:102C90009395F695879577956795B795F111F8CF48
:102CA000FAF4BB0F11F460FF1BC06F5F7F4F8F4FB3
:102CB0009F4F16C0882311F096E911C0772321F0A9
:102CC0009EE8872F762F05C0662371F096E8862F41
:102CD00070E060E02AF09A95660F771F881FDAF798
:102CE000880F9695879597F90895990F0008550FC5
:102CF000AA0BE0E8FEEF16161706E807F907C0F082
:102D000012161306E407F50798F0621B730B840B89
:102D1000950B39F40A2661F0232B242B252B21F463
:102D200008950A2609F4A140A6958FEF811D811D03
:102D3000089597F99F6780E870E060E008959FEF3D
:102D400080EC089500240A94161617061806090642
:102D5000089500240A941216130614060506089511
:102D6000092E0394000C11F4882352F0BB0F40F499
:102D7000BF2B11F460FF04C06F5F7F4F8F4F9F4FD9
:102D8000089557FD9058440F551F59F05F3F71F05B
:102D90004795880F97FB991F61F09F3F79F08795C2
:102DA0000895121613061406551FF2CF4695F1DF4B
:102DB00008C0161617061806991FF1CF86957105DB
:102DC000610508940895E894BB2766277727CB010F
:102DD00097F908950E94751608F48FEF08950E94E0
:102DE00002170C94B0160E94A21638F00E94A91681
:102DF00020F0952311F00C9499160C949F16112431
:102E00000C94E4160E94C11670F3959FC1F3950FC0
:102E100050E0551F629FF001729FBB27F00DB11D5E
:102E2000639FAA27F00DB11DAA1F649F6627B00DEE
:102E3000A11D661F829F2227B00DA11D621F739FD7
:102E4000B00DA11D621F839FA00D611D221F749FE5
:102E50003327A00D611D231F849F600D211D822F2C
:102E6000762F6A2F11249F5750409AF0F1F0882353
:102E70004AF0EE0FFF1FBB1F661F771F881F915080
:102E80005040A9F79E3F510580F00C9499160C9480
:102E9000E4165F3FE4F3983ED4F386957795679503
:102EA000B795F795E7959F5FC1F7FE2B880F911DAA
:102EB0009695879597F908950E947516880B990B3A
:102EC0000895AA1BBB1B51E107C0AA1FBB1FA61771
:102ED000B70710F0A61BB70B881F991F5A95A9F7C3
:102EE00080959095BC01CD010895EE0FFF1F0590D0
:0A2EF000F491E02D0994F894FFCF4F
:102EFA00FFFFFFFF00E10000000000006C013C083A
:102F0A00AC0018080C043C084C03180800C1808166
:102F1A0000000000000000E6060D080707FC064D49
:102F2A00070B07290700000000C90AA8087D0B7CC7
:102F3A000B6E616E00696E66006F7666000D0A00A0
:00000001FF
